{
  "_format": "hh-sol-artifact-1",
  "contractName": "Token",
  "sourceName": "contracts/Token.sol",
  "abi": [
    {
      "inputs": [
        {
          "internalType": "uint256",
          "name": "total",
          "type": "uint256"
        }
      ],
      "stateMutability": "nonpayable",
      "type": "constructor"
    },
    {
      "anonymous": false,
      "inputs": [
        {
          "indexed": true,
          "internalType": "address",
          "name": "_owner",
          "type": "address"
        },
        {
          "indexed": true,
          "internalType": "address",
          "name": "_spender",
          "type": "address"
        },
        {
          "indexed": false,
          "internalType": "uint256",
          "name": "_value",
          "type": "uint256"
        }
      ],
      "name": "Approval",
      "type": "event"
    },
    {
      "anonymous": false,
      "inputs": [
        {
          "indexed": true,
          "internalType": "address",
          "name": "_from",
          "type": "address"
        },
        {
          "indexed": true,
          "internalType": "address",
          "name": "_to",
          "type": "address"
        },
        {
          "indexed": false,
          "internalType": "uint256",
          "name": "_value",
          "type": "uint256"
        }
      ],
      "name": "Transfer",
      "type": "event"
    },
    {
      "inputs": [
        {
          "internalType": "address",
          "name": "",
          "type": "address"
        },
        {
          "internalType": "address",
          "name": "",
          "type": "address"
        }
      ],
      "name": "allowance",
      "outputs": [
        {
          "internalType": "uint256",
          "name": "",
          "type": "uint256"
        }
      ],
      "stateMutability": "view",
      "type": "function"
    },
    {
      "inputs": [
        {
          "internalType": "address",
          "name": "_spender",
          "type": "address"
        },
        {
          "internalType": "uint256",
          "name": "_value",
          "type": "uint256"
        }
      ],
      "name": "approve",
      "outputs": [
        {
          "internalType": "bool",
          "name": "success",
          "type": "bool"
        }
      ],
      "stateMutability": "nonpayable",
      "type": "function"
    },
    {
      "inputs": [
        {
          "internalType": "address",
          "name": "",
          "type": "address"
        }
      ],
      "name": "balanceOf",
      "outputs": [
        {
          "internalType": "uint256",
          "name": "",
          "type": "uint256"
        }
      ],
      "stateMutability": "view",
      "type": "function"
    },
    {
      "inputs": [],
      "name": "name",
      "outputs": [
        {
          "internalType": "string",
          "name": "",
          "type": "string"
        }
      ],
      "stateMutability": "view",
      "type": "function"
    },
    {
      "inputs": [],
      "name": "owner",
      "outputs": [
        {
          "internalType": "address",
          "name": "",
          "type": "address"
        }
      ],
      "stateMutability": "view",
      "type": "function"
    },
    {
      "inputs": [],
      "name": "symbol",
      "outputs": [
        {
          "internalType": "string",
          "name": "",
          "type": "string"
        }
      ],
      "stateMutability": "view",
      "type": "function"
    },
    {
      "inputs": [],
      "name": "totalSupply",
      "outputs": [
        {
          "internalType": "uint256",
          "name": "",
          "type": "uint256"
        }
      ],
      "stateMutability": "view",
      "type": "function"
    },
    {
      "inputs": [
        {
          "internalType": "address",
          "name": "_to",
          "type": "address"
        },
        {
          "internalType": "uint256",
          "name": "_value",
          "type": "uint256"
        }
      ],
      "name": "transfer",
      "outputs": [
        {
          "internalType": "bool",
          "name": "success",
          "type": "bool"
        }
      ],
      "stateMutability": "nonpayable",
      "type": "function"
    },
    {
      "inputs": [
        {
          "internalType": "address",
          "name": "_from",
          "type": "address"
        },
        {
          "internalType": "address",
          "name": "_to",
          "type": "address"
        },
        {
          "internalType": "uint256",
          "name": "_value",
          "type": "uint256"
        }
      ],
      "name": "transferFrom",
      "outputs": [
        {
          "internalType": "bool",
          "name": "success",
          "type": "bool"
        }
      ],
      "stateMutability": "nonpayable",
      "type": "function"
    }
  ],
  "bytecode": "0x60806040526040518060400160405280600981526020017f53656120546f6b656e0000000000000000000000000000000000000000000000815250600090805190602001906200005192919062000168565b506040518060400160405280600381526020017f5345410000000000000000000000000000000000000000000000000000000000815250600190805190602001906200009f92919062000168565b50348015620000ad57600080fd5b5060405162001008380380620010088339818101604052810190620000d391906200022f565b80600281905550600254600460003373ffffffffffffffffffffffffffffffffffffffff1673ffffffffffffffffffffffffffffffffffffffff1681526020019081526020016000208190555033600360006101000a81548173ffffffffffffffffffffffffffffffffffffffff021916908373ffffffffffffffffffffffffffffffffffffffff16021790555050620002e4565b828054620001769062000265565b90600052602060002090601f0160209004810192826200019a5760008555620001e6565b82601f10620001b557805160ff1916838001178555620001e6565b82800160010185558215620001e6579182015b82811115620001e5578251825591602001919060010190620001c8565b5b509050620001f59190620001f9565b5090565b5b8082111562000214576000816000905550600101620001fa565b5090565b6000815190506200022981620002ca565b92915050565b6000602082840312156200024257600080fd5b6000620002528482850162000218565b91505092915050565b6000819050919050565b600060028204905060018216806200027e57607f821691505b602082108114156200029557620002946200029b565b5b50919050565b7f4e487b7100000000000000000000000000000000000000000000000000000000600052602260045260246000fd5b620002d5816200025b565b8114620002e157600080fd5b50565b610d1480620002f46000396000f3fe608060405234801561001057600080fd5b50600436106100935760003560e01c806370a082311161006657806370a08231146101345780638da5cb5b1461016457806395d89b4114610182578063a9059cbb146101a0578063dd62ed3e146101d057610093565b806306fdde0314610098578063095ea7b3146100b657806318160ddd146100e657806323b872dd14610104575b600080fd5b6100a0610200565b6040516100ad9190610ab1565b60405180910390f35b6100d060048036038101906100cb91906109d9565b61028e565b6040516100dd9190610a96565b60405180910390f35b6100ee610380565b6040516100fb9190610ad3565b60405180910390f35b61011e6004803603810190610119919061098a565b610386565b60405161012b9190610a96565b60405180910390f35b61014e60048036038101906101499190610925565b6105f7565b60405161015b9190610ad3565b60405180910390f35b61016c61060f565b6040516101799190610a7b565b60405180910390f35b61018a610635565b6040516101979190610ab1565b60405180910390f35b6101ba60048036038101906101b591906109d9565b6106c3565b6040516101c79190610a96565b60405180910390f35b6101ea60048036038101906101e5919061094e565b6108aa565b6040516101f79190610ad3565b60405180910390f35b6000805461020d90610c0f565b80601f016020809104026020016040519081016040528092919081815260200182805461023990610c0f565b80156102865780601f1061025b57610100808354040283529160200191610286565b820191906000526020600020905b81548152906001019060200180831161026957829003601f168201915b505050505081565b600081600560003373ffffffffffffffffffffffffffffffffffffffff1673ffffffffffffffffffffffffffffffffffffffff16815260200190815260200160002060008573ffffffffffffffffffffffffffffffffffffffff1673ffffffffffffffffffffffffffffffffffffffff168152602001908152602001600020819055508273ffffffffffffffffffffffffffffffffffffffff163373ffffffffffffffffffffffffffffffffffffffff167f8c5be1e5ebec7d5bd14f71427d1e84f3dd0314c0f7b2291e5b200ac8c7c3b9258460405161036e9190610ad3565b60405180910390a36001905092915050565b60025481565b6000600460008573ffffffffffffffffffffffffffffffffffffffff1673ffffffffffffffffffffffffffffffffffffffff168152602001908152602001600020548211156103d457600080fd5b600560008573ffffffffffffffffffffffffffffffffffffffff1673ffffffffffffffffffffffffffffffffffffffff16815260200190815260200160002060003373ffffffffffffffffffffffffffffffffffffffff1673ffffffffffffffffffffffffffffffffffffffff1681526020019081526020016000205482111561045d57600080fd5b6104af82600460008773ffffffffffffffffffffffffffffffffffffffff1673ffffffffffffffffffffffffffffffffffffffff168152602001908152602001600020546108cf90919063ffffffff16565b600460008673ffffffffffffffffffffffffffffffffffffffff1673ffffffffffffffffffffffffffffffffffffffff1681526020019081526020016000208190555061054482600460008673ffffffffffffffffffffffffffffffffffffffff1673ffffffffffffffffffffffffffffffffffffffff168152602001908152602001600020546108e590919063ffffffff16565b600460008573ffffffffffffffffffffffffffffffffffffffff1673ffffffffffffffffffffffffffffffffffffffff168152602001908152602001600020819055508273ffffffffffffffffffffffffffffffffffffffff168473ffffffffffffffffffffffffffffffffffffffff167fddf252ad1be2c89b69c2b068fc378daa952ba7f163c4a11628f55a4df523b3ef846040516105e49190610ad3565b60405180910390a3600190509392505050565b60046020528060005260406000206000915090505481565b600360009054906101000a900473ffffffffffffffffffffffffffffffffffffffff1681565b6001805461064290610c0f565b80601f016020809104026020016040519081016040528092919081815260200182805461066e90610c0f565b80156106bb5780601f10610690576101008083540402835291602001916106bb565b820191906000526020600020905b81548152906001019060200180831161069e57829003601f168201915b505050505081565b600081600460003373ffffffffffffffffffffffffffffffffffffffff1673ffffffffffffffffffffffffffffffffffffffff16815260200190815260200160002054101561071157600080fd5b61076382600460003373ffffffffffffffffffffffffffffffffffffffff1673ffffffffffffffffffffffffffffffffffffffff168152602001908152602001600020546108cf90919063ffffffff16565b600460003373ffffffffffffffffffffffffffffffffffffffff1673ffffffffffffffffffffffffffffffffffffffff168152602001908152602001600020819055506107f882600460008673ffffffffffffffffffffffffffffffffffffffff1673ffffffffffffffffffffffffffffffffffffffff168152602001908152602001600020546108e590919063ffffffff16565b600460008573ffffffffffffffffffffffffffffffffffffffff1673ffffffffffffffffffffffffffffffffffffffff168152602001908152602001600020819055508273ffffffffffffffffffffffffffffffffffffffff163373ffffffffffffffffffffffffffffffffffffffff167fddf252ad1be2c89b69c2b068fc378daa952ba7f163c4a11628f55a4df523b3ef846040516108989190610ad3565b60405180910390a36001905092915050565b6005602052816000526040600020602052806000526040600020600091509150505481565b600081836108dd9190610b60565b905092915050565b600081836108f39190610b0a565b905092915050565b60008135905061090a81610cb0565b92915050565b60008135905061091f81610cc7565b92915050565b60006020828403121561093757600080fd5b6000610945848285016108fb565b91505092915050565b6000806040838503121561096157600080fd5b600061096f858286016108fb565b9250506020610980858286016108fb565b9150509250929050565b60008060006060848603121561099f57600080fd5b60006109ad868287016108fb565b93505060206109be868287016108fb565b92505060406109cf86828701610910565b9150509250925092565b600080604083850312156109ec57600080fd5b60006109fa858286016108fb565b9250506020610a0b85828601610910565b9150509250929050565b610a1e81610b94565b82525050565b610a2d81610ba6565b82525050565b6000610a3e82610aee565b610a488185610af9565b9350610a58818560208601610bdc565b610a6181610c9f565b840191505092915050565b610a7581610bd2565b82525050565b6000602082019050610a906000830184610a15565b92915050565b6000602082019050610aab6000830184610a24565b92915050565b60006020820190508181036000830152610acb8184610a33565b905092915050565b6000602082019050610ae86000830184610a6c565b92915050565b600081519050919050565b600082825260208201905092915050565b6000610b1582610bd2565b9150610b2083610bd2565b9250827fffffffffffffffffffffffffffffffffffffffffffffffffffffffffffffffff03821115610b5557610b54610c41565b5b828201905092915050565b6000610b6b82610bd2565b9150610b7683610bd2565b925082821015610b8957610b88610c41565b5b828203905092915050565b6000610b9f82610bb2565b9050919050565b60008115159050919050565b600073ffffffffffffffffffffffffffffffffffffffff82169050919050565b6000819050919050565b60005b83811015610bfa578082015181840152602081019050610bdf565b83811115610c09576000848401525b50505050565b60006002820490506001821680610c2757607f821691505b60208210811415610c3b57610c3a610c70565b5b50919050565b7f4e487b7100000000000000000000000000000000000000000000000000000000600052601160045260246000fd5b7f4e487b7100000000000000000000000000000000000000000000000000000000600052602260045260246000fd5b6000601f19601f8301169050919050565b610cb981610b94565b8114610cc457600080fd5b50565b610cd081610bd2565b8114610cdb57600080fd5b5056fea26469706673582212201a98b36b143826db1276b9bc9e35166d2d7e4d3b42dcd2f6c4b050d4e08acb2d64736f6c63430008000033",
  "linkReferences": {},
  "deployedLinkReferences": {}
}