{
  "_format": "hh-sol-artifact-1",
  "contractName": "ICO",
  "sourceName": "contracts/ICO.sol",
  "abi": [
    {
      "inputs": [
        {
          "internalType": "contract Token",
          "name": "_tokenContract",
          "type": "address"
        },
        {
          "internalType": "uint256",
          "name": "_tokenPrice",
          "type": "uint256"
        }
      ],
      "stateMutability": "nonpayable",
      "type": "constructor"
    },
    {
      "anonymous": false,
      "inputs": [
        {
          "indexed": false,
          "internalType": "address",
          "name": "_buyer",
          "type": "address"
        },
        {
          "indexed": false,
          "internalType": "uint256",
          "name": "_amount",
          "type": "uint256"
        }
      ],
      "name": "Sell",
      "type": "event"
    },
    {
      "inputs": [],
      "name": "admin",
      "outputs": [
        {
          "internalType": "address",
          "name": "",
          "type": "address"
        }
      ],
      "stateMutability": "view",
      "type": "function"
    },
    {
      "inputs": [
        {
          "internalType": "uint256",
          "name": "_numberOfTokens",
          "type": "uint256"
        }
      ],
      "name": "buyTokens",
      "outputs": [],
      "stateMutability": "payable",
      "type": "function"
    },
    {
      "inputs": [],
      "name": "endSale",
      "outputs": [],
      "stateMutability": "nonpayable",
      "type": "function"
    },
    {
      "inputs": [],
      "name": "tokenContract",
      "outputs": [
        {
          "internalType": "contract Token",
          "name": "",
          "type": "address"
        }
      ],
      "stateMutability": "view",
      "type": "function"
    },
    {
      "inputs": [],
      "name": "tokenPrice",
      "outputs": [
        {
          "internalType": "uint256",
          "name": "",
          "type": "uint256"
        }
      ],
      "stateMutability": "view",
      "type": "function"
    },
    {
      "inputs": [],
      "name": "tokensSold",
      "outputs": [
        {
          "internalType": "uint256",
          "name": "",
          "type": "uint256"
        }
      ],
      "stateMutability": "view",
      "type": "function"
    }
  ],
  "bytecode": "0x608060405234801561001057600080fd5b50604051610b1e380380610b1e833981810160405281019061003291906100eb565b336000806101000a81548173ffffffffffffffffffffffffffffffffffffffff021916908373ffffffffffffffffffffffffffffffffffffffff16021790555081600160006101000a81548173ffffffffffffffffffffffffffffffffffffffff021916908373ffffffffffffffffffffffffffffffffffffffff1602179055508060028190555050506101a3565b6000815190506100d081610175565b92915050565b6000815190506100e58161018c565b92915050565b600080604083850312156100fe57600080fd5b600061010c858286016100c1565b925050602061011d858286016100d6565b9150509250929050565b60006101328261014b565b9050919050565b600061014482610127565b9050919050565b600073ffffffffffffffffffffffffffffffffffffffff82169050919050565b6000819050919050565b61017e81610139565b811461018957600080fd5b50565b6101958161016b565b81146101a057600080fd5b50565b61096c806101b26000396000f3fe6080604052600436106100555760003560e01c80633610724e1461005a578063380d831b14610076578063518ab2a81461008d57806355a373d6146100b85780637ff9b596146100e3578063f851a4401461010e575b600080fd5b610074600480360381019061006f9190610664565b610139565b005b34801561008257600080fd5b5061008b610316565b005b34801561009957600080fd5b506100a2610559565b6040516100af9190610742565b60405180910390f35b3480156100c457600080fd5b506100cd61055f565b6040516100da9190610727565b60405180910390f35b3480156100ef57600080fd5b506100f8610585565b6040516101059190610742565b60405180910390f35b34801561011a57600080fd5b5061012361058b565b60405161013091906106e3565b60405180910390f35b610145816002546105af565b341461015057600080fd5b80600160009054906101000a900473ffffffffffffffffffffffffffffffffffffffff1673ffffffffffffffffffffffffffffffffffffffff166370a08231306040518263ffffffff1660e01b81526004016101ac91906106e3565b60206040518083038186803b1580156101c457600080fd5b505afa1580156101d8573d6000803e3d6000fd5b505050506040513d601f19601f820116820180604052508101906101fc919061068d565b101561020757600080fd5b600160009054906101000a900473ffffffffffffffffffffffffffffffffffffffff1673ffffffffffffffffffffffffffffffffffffffff1663a9059cbb33836040518363ffffffff1660e01b81526004016102649291906106fe565b602060405180830381600087803b15801561027e57600080fd5b505af1158015610292573d6000803e3d6000fd5b505050506040513d601f19601f820116820180604052508101906102b6919061063b565b6102bf57600080fd5b6102d4816003546105e690919063ffffffff16565b6003819055507f5e5e995ce3133561afceaa51a9a154d5db228cd7525d34df5185582c18d3df09338260405161030b9291906106fe565b60405180910390a150565b60008054906101000a900473ffffffffffffffffffffffffffffffffffffffff1673ffffffffffffffffffffffffffffffffffffffff163373ffffffffffffffffffffffffffffffffffffffff161461036e57600080fd5b600160009054906101000a900473ffffffffffffffffffffffffffffffffffffffff1673ffffffffffffffffffffffffffffffffffffffff1663a9059cbb60008054906101000a900473ffffffffffffffffffffffffffffffffffffffff16600160009054906101000a900473ffffffffffffffffffffffffffffffffffffffff1673ffffffffffffffffffffffffffffffffffffffff166370a08231306040518263ffffffff1660e01b815260040161042891906106e3565b60206040518083038186803b15801561044057600080fd5b505afa158015610454573d6000803e3d6000fd5b505050506040513d601f19601f82011682018060405250810190610478919061068d565b6040518363ffffffff1660e01b81526004016104959291906106fe565b602060405180830381600087803b1580156104af57600080fd5b505af11580156104c3573d6000803e3d6000fd5b505050506040513d601f19601f820116820180604052508101906104e7919061063b565b6104f057600080fd5b60008054906101000a900473ffffffffffffffffffffffffffffffffffffffff1673ffffffffffffffffffffffffffffffffffffffff166108fc479081150290604051600060405180830381858888f19350505050158015610556573d6000803e3d6000fd5b50565b60035481565b600160009054906101000a900473ffffffffffffffffffffffffffffffffffffffff1681565b60025481565b60008054906101000a900473ffffffffffffffffffffffffffffffffffffffff1681565b6000808214806105d75750828283856105c891906107e4565b9250826105d591906107b3565b145b6105e057600080fd5b92915050565b600081836105f4919061075d565b905092915050565b60008151905061060b81610908565b92915050565b6000813590506106208161091f565b92915050565b6000815190506106358161091f565b92915050565b60006020828403121561064d57600080fd5b600061065b848285016105fc565b91505092915050565b60006020828403121561067657600080fd5b600061068484828501610611565b91505092915050565b60006020828403121561069f57600080fd5b60006106ad84828501610626565b91505092915050565b6106bf8161083e565b82525050565b6106ce81610886565b82525050565b6106dd8161087c565b82525050565b60006020820190506106f860008301846106b6565b92915050565b600060408201905061071360008301856106b6565b61072060208301846106d4565b9392505050565b600060208201905061073c60008301846106c5565b92915050565b600060208201905061075760008301846106d4565b92915050565b60006107688261087c565b91506107738361087c565b9250827fffffffffffffffffffffffffffffffffffffffffffffffffffffffffffffffff038211156107a8576107a76108aa565b5b828201905092915050565b60006107be8261087c565b91506107c98361087c565b9250826107d9576107d86108d9565b5b828204905092915050565b60006107ef8261087c565b91506107fa8361087c565b9250817fffffffffffffffffffffffffffffffffffffffffffffffffffffffffffffffff0483118215151615610833576108326108aa565b5b828202905092915050565b60006108498261085c565b9050919050565b60008115159050919050565b600073ffffffffffffffffffffffffffffffffffffffff82169050919050565b6000819050919050565b600061089182610898565b9050919050565b60006108a38261085c565b9050919050565b7f4e487b7100000000000000000000000000000000000000000000000000000000600052601160045260246000fd5b7f4e487b7100000000000000000000000000000000000000000000000000000000600052601260045260246000fd5b61091181610850565b811461091c57600080fd5b50565b6109288161087c565b811461093357600080fd5b5056fea2646970667358221220e55b251c1eb4caee5d7b4b93ef5e8176a82d1a98782b3346511ddc4dfc2af42d64736f6c63430008000033",
  "linkReferences": {},
  "deployedLinkReferences": {}
}